:020000040000fa
:080000000002040000000000f2
:020000040000fa
:10040000af6921000e7f22000e018800000000006d
:100410000c00070000b82800010020000f000700b2
:10042000000020000000e000020032000000020096
:1004300000000000b6ab0200000000000040da003f
:100440000000fe00204620000000e0000200320014
:10045000002020009001880000000600a102880012
:10046000800078000000eb001a003700e2804000b6
:1004700054a0b4009101ba00e280400054a0b4003e
:100480009102ba00e280400054a0b4000002eb00e8
:10049000472bde00f507b200a6018800602ce100c2
:1004a00008003a000049eb000201e80002003900b0
:1004b0003420ec0002f0a0008301e900f9ff3e00c7
:1004c000040037006128e100010032000082eb00e7
:1004d000040007001101ba000200e000e3ff3a0047
:1004e0000000060004d0a300e20f49001c00390000
:1004f000810278003549ba000201e80002003900a3
:100500003420ec0002f0a0008301e9000f0032006b
:100510002549ba000201e800020039003420ec004d
:1005200002f0a0008301e900080032000400e000ae
:100530000600320015c9ba000201e80002003900c5
:100540003420ec0002f0a0008301e9008180e80083
:1005500054a0b4000300e000e2ff3a0000000600ef
:100560009102ba00055978008301e900f7ff3200d3
:10057000c82ade00055978008301e900f3ff320044
:100580000400e000f1ff320011d9ba00eeff37009d
:100590000040da000000fe0003f0a200889fbe00c9
:1005a0008a9fbe008c1f780050010700570133005e
:1005b0006450e1004f0032006420e100520032003c
:1005c00003826c0007003b000905d0000306d00041
:1005d000820f54000c065d00020039000200320058
:1005e00089017800030678008582550004003d00eb
:1005f0000003fd008103fd008502ea008b854200b7
:10060000840f720002003b0060001000e0801800c0
:100610006011b8000005eb007a28e1000a003900fb
:1006200006007800c75ddd00f707b200878075001f
:100630002d003700828171000a0178006105600099
:100640008180d1000080d3008502e900f9ff3b00e2
:10065000060440008784480002003b006004140048
:10066000e0841c000988a300070032008a81710021
:1006700082817100610164008904d1000884d30083
:100680008b05e800170037000978a30013003a0033
:100690000b00e000130034008b05e900080444005f
:1006a00089844c000a4474000978a3000d003a00c4
:1006b0000b00e000070034008b05e900080444004b
:1006c00089844c0001003a000b0020000978a30047
:1006d000f7ff32000001eb00020037008281710059
:1006e0000a017800c60007000cf0a70001f0a00086
:1006f0000f0137006420e10002003a00838f6c0094
:100700000f0133000801be000200be0008013700df
:10071000889fbe008a9fbe008c1f7800f3000700f0
:10072000fa00330003866c006450e1002e003200b2
:100730006420e100330032006150e1002f003200fc
:100740006120e1003100320085855500eb07b000e3
:1007500009002000080420000500370008044400b8
:1007600089844c000a0031000603430087834b0054
:100770000001530081815b00f8ff33000203be00db
:100780000800a0000804440089844c00f6ff3900ea
:10079000c639dd0083017300010032001300200020
:1007a0008904d1000884d3000998a3000500320011
:1007b0000800a7000300a0008904d1000884d3002a
:1007c0008b05e8008904d1000884d3000001eb0008
:1007d0000281d2008a00070001f0a1000cf0a700fe
:1007e00001f0a000d20037006420e100d400320004
:1007f0000801be000200be00f7ff37006120e100e3
:10080000cf0032006000b800f3ff37000000200086
:1008100001f82700f0ff3700839f68000100e00027
:1008200002003d0060001000e08018000300e000be
:1008300002003d0060011100e0811900f70007008f
:100840004f00e00002003b0060001000e080180054
:10085000000006001400200009013700f4ff2f00fb
:10086000070137000001be008b0007000470a700dd
:1008700003f0a1006509b100160032000d0035003b
:100880006828e10006003500f0ff2f00f1ff270087
:100890000300e00013003b000100280000000500f9
:1008a00000004000818048008502e900fcff3a001a
:1008b00008003700f88f420002003c008000eb0087
:1008c000000005008100d1000080d3008502e8000f
:1008d000fcff3a000300e00002003b006000100053
:1008e000e0801800000006000001be006a0007005a
:1008f0000470a70003f0a10003f8a30013003a005e
:100900006509b10010003200090035006928e100d6
:100910000200350001002800000005000000400032
:10092000818048008502e900fcff3a0000000600d3
:10093000f88f4200050035008100d1000080d3000f
:100940008502e800fcff3a00000006008000eb0092
:1009500000000500889fbe008a9fbe000105780048
:100960000100e0000400350008003c000000e00049
:10097000200032000500370060001000e080180001
:1009800002003b0001f02c001a0037000004be00fa
:100990006011b8006b0920000982cf000200390005
:1009a0000882cf000441b000694252000e003200bc
:1009b00008003b0082817100610164008904d1005c
:1009c0000884d3008b05e8000442e800f9ff3a00f0
:1009d000050037000804440089844c008b05e900b9
:1009e0000442e900fbff3a00050007000af0a700f7
:1009f00001f0a0004f05be004f04be00000006003d
:100a000081002000618055000b003d000b0020009c
:100a100061fe2f000100e1001d00340082817100a1
:100a2000610164008904d1000884d3000000e8005b
:100a3000faff3a00710020006100640003007000ba
:100a4000020060000900320061044400e0844c00b0
:100a50000988a500050032008b05e8006808e10060
:100a600002003a008904d1000884d300f20f20006c
:100a70000258e10005003d00c75ddd00f907b20046
:100a80008980750008007800000006000bf8270038
:100a90008b00780000000500c70ade00f107b200f5
:100aa000f50fb20008003200e1cf42000200320030
:100ab0000170a00024000500810f700001003200c9
:100ac0000408050044000500810f700002003a0090
:100ad000140005008502e9000000400081c04800c4
:100ae000fcff3b000170a000240005000004be00d4
:100af000e9ff07000003be000405be000200be00bf
:100b0000e5ff0700844f7500000006000200be00ec
:100b10006450e100050036006420e1000200360068
:100b20000968a30001003a000800be000160a000af
:100b30004f0678004f05be004f04be0000000600bf
:100b4000f0ff2f00f1ff2700f9ff3700889fbe005c
:100b50008a9fbe008c1f7800e4ff0700ebff330084
:100b600003866c006450e100240032006420e10040
:100b7000270032006150e100220032006120e100d4
:100b8000210032008b854200eb07b1000134b80030
:100b9000003ab8000804420089844a00013ab800cb
:100ba0000030b8008880400009014a00040033008a
:100bb0000000400081804800020149008b05e900e7
:100bc000c909dd008301700001003200130020001c
:100bd000c814de004814dd004709de001200b20030
:100be000c808de000884700085ff070001f0a1003e
:100bf0000cf0a70001f0a000cdff37006120e1005c
:100c0000cfff32000801be000200be00f7ff370030
:100c10006150e100fcff3a00c9ff37006022b800d4
:100c2000060220000000d0008180d2000482d200a1
:100c30008582d2000000a0000202520083825a0086
:100c4000030031000202420083824a000000a1003a
:100c50000603e900f3ff3a0000000600efff07007b
:100c60000400be0000000600020ab900001bb90023
:100c70000200b8008100420081004300000006002d
:100c8000889fbe008a9fbe00841f780097ff0700e0
:100c90004f00780011003300f0ff2f00838f6c00ad
:100ca00006003b00040565000a00a70008003700a5
:100cb00009f0a6001000200008003700820f540041
:100cc000838f5c00030039001000200001003e000b
:100cd0000000200009f0a7000000ea004f05be0058
:0c0ce0004f04be000000e0000000060011
:020000040000fa
:020000040001f9
:0457f00020fe000097
:020000040000fa
:020000040001f9
:0457f400ffff0000b3
:020000040000fa
:020000040001f9
:0457f8009ff8000016
:020000040000fa
:020000040001f9
:0457fc00d53f000095
:020000040000fa
:10000800c8020000c8020000c8020000c8020000c0
:10001800c8020000c8020000c8020000c8020000b0
:10002800c8020000bea90000c8020000c802000003
:10003800c8020000c8020000c8020000eca60000c8
:10004800c8020000c8020000c80200008ea8000014
:10005800c80200000eab0000c8020000c802000081
:10006800c8020000c8020000c8020000c802000060
:10007800c8020000c8020000c8020000c802000050
:10008800c8020000c8020000c8020000c802000040
:10009800c8020000c80200008ca90000c8020000c5
:1000a800c8020000c8020000c8020000c802000020
:1000b800c8020000c8020000c8020000c802000010
:1000c800c8020000c8020000c8020000c802000000
:1000d800c8020000c8020000c8020000c8020000f0
:1000e800c8020000c8020000c8020000c8020000e0
:1000f800c8020000c8020000c8020000c8020000d0
:10010800c8020000c8020000c8020000c8020000bf
:10011800c8020000c8020000c8020000c8020000af
:10012800c8020000c8020000c8020000c80200009f
:10013800c8020000c8020000c8020000c80200008f
:10014800c8020000c8020000c8020000c80200007f
:10015800c8020000c8020000c8020000c80200006f
:10016800c8020000c802000090a90000c8020000f0
:10017800c8020000c8020000c8020000c80200004f
:10018800baa90000c8020000c8020000c8020000a6
:10019800c8020000c8020000c8020000c80200002f
:1001a800c8020000c8020000c8020000c80200001f
:1001b800c8020000c8020000c8020000c80200000f
:1001c800c8020000c8020000c8020000c8020000ff
:1001d800c8020000c8020000c8020000c8020000ef
:1001e800c8020000c8020000c8020000c8020000df
:0801f800c8020000c80200006b
:020000040000fa
:10020800c8020000c8020000c8020000c8020000be
:10021800c8020000c8020000c8020000c8020000ae
:10022800c8020000bea90000c8020000c802000001
:10023800c8020000c8020000c8020000eca60000c6
:10024800c8020000c8020000c80200008ea8000012
:10025800c80200000eab0000c8020000c80200007f
:10026800c8020000c8020000c8020000c80200005e
:10027800c8020000c8020000c8020000c80200004e
:10028800c8020000c8020000c8020000c80200003e
:10029800c8020000c80200008ca90000c8020000c3
:1002a800c8020000c8020000c8020000c80200001e
:1002b800c8020000c8020000c8020000c80200000e
:1002c800c8020000c8020000c8020000c8020000fe
:1002d800c8020000c8020000c8020000c8020000ee
:1002e800c8020000c8020000c8020000c8020000de
:1002f800c8020000c8020000c8020000c8020000ce
:10030800c8020000c8020000c8020000c8020000bd
:10031800c8020000c8020000c8020000c8020000ad
:10032800c8020000c8020000c8020000c80200009d
:10033800c8020000c8020000c8020000c80200008d
:10034800c8020000c8020000c8020000c80200007d
:10035800c8020000c8020000c8020000c80200006d
:10036800c8020000c802000090a90000c8020000ee
:10037800c8020000c8020000c8020000c80200004d
:10038800baa90000c8020000c8020000c8020000a4
:10039800c8020000c8020000c8020000c80200002d
:1003a800c8020000c8020000c8020000c80200001d
:1003b800c8020000c8020000c8020000c80200000d
:1003c800c8020000c8020000c8020000c8020000fd
:1003d800c8020000c8020000c8020000c8020000ed
:1003e800c8020000c8020000c8020000c8020000dd
:0803f800c8020000c802000069
:020000040000fa
:104000004348000020300000320000002020000063
:1040100020200000200000002020000020200000c0
:104020002020000000200000200000004348000085
:104030002030000036000000504c000055200000e9
:104040004e4f000000500000205500004e49000077
:10405000540000000000000000000000000000000c
:104060000000000000000000000000000000000050
:104070000000000000000000000000000000000040
:104080000000000000000000000000000000000030
:104090000000000000000000000000000000000020
:10437000000000005043000020200000200000004a
:1043800020200000445400005020000000200000c5
:10439000434c000045410000520000004441000031
:1043a000494c000059000000eb600000c7e5000028
:1043b0006cad0000afe80000efed00000000000071
:1043c00000000000000000000000000000000000ed
:1043d000000000000004000000000000eb6000008e
:1043e000c7e500006cad0000afe80000efed000095
:1043f00000000000000500000000000000ee0000ca
:104400002f8b0000678f00008eab00002e20000075
:10441000630e00000ba6000026270000ceec000073
:1044200006ad00000f6b000023a300006e6d0000be
:10443000c72900000405000001030000444c0000ef
:10444000787c0000383c0000404800002830000024
:10445000343800003c40000030340000383c00009c
:1044600040700000383c000040440000484c000010
:1044700070740000787c0000383c00004048000068
:10448000444c0000787c0000202000002020000028
:104490002000000020450000525200004f52000052
:1044a000002000005a450000524f0000002000008c
:1044b0004f56000045520000002000002d2d000046
:1044c0002d2d00002000000020540000415200006b
:1044d0004500000041480000204f00004e00000051
:1044e000414800004f4600004600000041440000e3
:1044f0000920000000200000202d00002d200000d9
:1045000020000000202d00002d20000020200000b1
:10451000002000002d2d00002d20000020000000b4
:10452000202d00002d2d00002d2d0000002000006a
:1045300020000000202d0000202d0000202d000074
:10454000004100002d530000554d000000200000e8
:10455000202000004520000020000000204800002e
:104560004f4c00004420000000000000080c000038
:10457000000000001000000002180000080c0000fd
:1045800000000000100000000218000020200000c1
:1045900042410000542000000020000042200000a2
:1045a0004120000054000000202000004341000092
:1045b0004c200000002000002000000020430000ec
:1045c000415000004100000020200000444900004c
:1045d0005600000043480000203000003300000077
:1045e0002043000048200000303400000053000049
:1045f000455400002d460000002000004c4f0000f4
:1046000041440000002d00002d550000502d0000f9
:10461000002d00002d2d00002d2d00000043000076
:104620004820000030350000002000005a450000fe
:10463000524f000000200000202000002020000039
:1046400000200000454e0000442000000000000053
:10465000202000004b4500005920000000300000e1
:104660003200000030350000002000004d45000001
:104670004d20000000200000474f00004f44000084
:104680000020000046410000494c000000050000e9
:1046900000000000002000005445000053540000ba
:1046a0002000000030340000004c000049470000aa
:1046b00048540000002000004f4600004620000043
:1046c000002000004f4e00002020000000200000cd
:1046d00020410000442000000030000033000000b2
:1046e000434800002030000032000000202000007d
:1046f00000200000202000002020000000200000fa
:1047000054450000535400000020000020450000e4
:104710004e440000200000000000000000000000e7
:104720000000000000000000000000000000000089
:1047300000000000000000003036000000200000f3
:104740005254000043200000002000002020000000
:1047500020200000002000002052000054430000f0
:1047600020000000205900004541000052000000d8
:104770002044000041540000450000002054000087
:10478000494d0000450000002020000020450000a9
:104790004e440000000000002043000048200000bc
:1047a0003031000000480000462d00005345000055
:1047b0005400000020200000202000002000000005
:1047c0002020000000480000462d000020200000ae
:1047d00000200000454e00004420000000200000a2
:1047e0002045000052520000200000002020000060
:1047f0005345000054200000002000004620000027
:10480000202000000000000081820000856100007f
:1048100062650000414200004521000022250000a1
:1048200001020000050900000a0d0000111200003d
:1048300015000000205200004653000045540000bf
:1048400000200000524500005452000059000000b2
:1048500020200000204500004e4400000000000021
:104860002020000020200000200000002020000068
:104870000000000000000000005000004320000085
:1048800020200000000000000000000000000000e8
:1048900000000000000000004d2d00004655000003
:1048a0004c4c000000000000202d00005053000080
:1048b0002d200000005300003d3100003031000089
:0448c00000000000f4
:020000040000fa
:1048c400a4c6bf0001ccb300014060007040b30037
:1048d400a4e6b700c6c6bf00014060003040b30084
:1048e400c6e6b7002002a90020c2bf0091cfb300e2
:1048f4000140600020e2b70020a2a90021e2a80044
:104904002062a80090012000401188002342a800e2
:104914008580a9008560a9009580a9009560a800fc
:104924009c20a90000000600a6c6bf0001ccb3006d
:10493400014060000034a000a6e6b700c9c6bf006d
:10494400014060005040b300c9e6b7003002a9003e
:1049540030c2bf0091cfb3000140600030e2b70025
:1049640030a2a90031e2a8003062a800700620003d
:10497400c01188003342a80087e0a90087c0a900bd
:1049840097e0a90097c0a8009c40a9000000060079
:10499400a3c6bf0001ccb300014060007041b30066
:1049a400a3e6b700d8c6bf0001406000c041b30011
:1049b400d8e6b7005002a90050c2bf0091cfb3009f
:1049c4000140600050e2b70050a2a90051e2a800e3
:1049d4005062a80070062000c01288005342a8004c
:1049e4008e60a9008e40a9009e60a9009e40a80088
:1049f4009e20a90000000600b6c6bf0001ccb3008b
:104a040001406000e041b300b6e6b700d0c6bf0085
:104a140001406000e041b300d0e6b700b002a90055
:104a2400b0c2bf0091cfb30001406000b0e2b70054
:104a3400b0a2a900b1e2a800b062a80070062000ec
:104a4400c01588005342a8008f20a9008f00a90038
:104a54009f20a9009f00a8009ee0a9000000060076
:104a64008040780023c2bf000018a300fdff3a0075
:104a74000180fb00201188000000060080407800bf
:104a840033c2bf000018a300fdff3a000180fb0001
:104a9400a0118800000006008040780053c2bf00c7
:104aa4000018a300fdff3a000180fb00a01288005b
:104ab4000000060080407800b3c2bf000018a300c5
:104ac400fdff3a000180fb00a015880000000600ed
:104ad40090882000e18920000058eb00810f5000ed
:104ae400fdff3a008868ef008768ef0000000600c9
:104af400889fbe008a1f78000004be0023c2bf0046
:104b04000018a300fdff3a001002200020118800c5
:104b140023c2bf000018a300fdff3a0030052000a7
:104b24002011880023c2bf000018a300fdff3a0033
:104b3400400520002011880057d4bf000080fb00ee
:104b44000000ea004f01de004211dd00b653e2002e
:104b5400010032000214a000b551e200010032004d
:104b64000204a000ac50e200010032000234a000b4
:104b7400b453e200010032000244a000a00d210061
:104b840021c0b30090cf100010003200b9d3bf0091
:104b94008081fb00830078000106b200000620003b
:104ba400808f500002003a000254a0000700370032
:104bb4000368a300020032000264a000030037006f
:104bc4000358a300010032000274a00023c2bf00f6
:104bd4000018a300fdff3a000280fb0020118800aa
:104be4005ac0b30002712200030020000800be0076
:104bf40009f0070002c3b3008240400023c2bf0093
:104c04000018a300fdff3a000180fb00201188007a
:104c140002712200030020000800be000ef007000d
:104c2400a2002000030020000ef007000004be00d4
:104c34000a45e900ebff3a0023c2bf000018a300b5
:104c4400fdff3a00d00020002011880023c2bf00dd
:104c54000018a300fdff3a00a000200020118800e6
:104c64004f0578004f04be000000060080022000bb
:104c740001002000262d070023c2bf000018a30056
:104c8400fdff3a00300120002011880023c2bf003c
:104c94000018a300fdff3a00300020002011880016
:104ca40023c2bf000018a300fdff3a000004200047
:104cb4002011880023c2bf000018a300fdff3a00a2
:104cc40060052000201188008002200001002000df
:104cd4000f2d070023c2bf000018a300fdff3a00f8
:104ce400700120002011880023c2bf000018a30017
:104cf400fdff3a002422ef0023c2bf000018a300e6
:104d0400fdff3a002422ef0023c2bf000018a300d5
:104d1400fdff3a007001200020118800800220006d
:104d240001002000fa2c070023c2bf000018a300d2
:104d3400fdff3a00100220002011880010c0b300cb
:104d440086e8b70000000600881f78008002200073
:104d540001002000ee2c070023c2bf000018a300ae
:104d6400fdff3a00300120002011880023c2bf005b
:104d74000018a300fdff3a00100020002011880055
:104d840023c2bf000018a300fdff3a000004200066
:104d94002011880023c2bf000018a300fdff3a00c1
:104da400400520002011880080022000010020001e
:104db400d72c070023c2bf000018a300fdff3a0050
:104dc400800120002011880023c2bf000018a30026
:104dd400fdff3a002422ef0023c2bf000018a30005
:104de400fdff3a002422ef0023c2bf0062446000aa
:104df400fdff3a008001200020118800800220007d
:104e040001002000c22c07000004fd0086e8b70062
:104e14000004fd004f04780000000600800220001a
:104e240001002000ba2c070023c2bf000018a30011
:104e3400fdff3a00300120002011880023c2bf008a
:104e44000018a300fdff3a00300020002011880064
:104e540023c2bf000018a300fdff3a000004200095
:104e64002011880023c2bf000018a300fdff3a00f0
:104e7400600520002011880080022000010020002d
:104e8400a32c070023c2bf00e2406000fdff3a00ec
:104e940010022000201188008000fd0086e8b70081
:104ea4008000fd0000000600881f780080022000ba
:104eb40001002000962c070023c2bf000018a300a5
:104ec400fdff3a00300120002011880023c2bf00fa
:104ed4000018a300fdff3a001000200020118800f4
:104ee40023c2bf000018a300fdff3a000004200005
:104ef4002011880023c2bf0062446000fdff3a0015
:104f040040052000201188008002200001002000bc
:104f14007f2c07000004fd0086e8b7000004fd00b4
:104f24004f047800000006000400fa00889fbe00c9
:104f34008a1f78008c9fbe000004be00cc8a8000cb
:104f4400dd8a80000001be000c00be0045ef0700b2
:104f5400a20020000300200042ef070090bf9f0042
:104f6400a1bf9f00adff070023c2bf000018a3002c
:104f7400fdff3a00d00020002011880023c2bf00aa
:104f84000018a300fdff3a00a000200020118800b3
:104f940023c2bf000018a300fdff3a0070052000e3
:104fa4002011880023c2bf000018a300fdff3a00af
:104fb400500420002011880023c2bf000018a30061
:104fc400fdff3a00900420002011880023c2bf0096
:104fd4000018a300fdff3a0070042000201188008f
:104fe40023c2bf000018a300fdff3a008004200084
:104ff4002011880023c2bf000018a300fdff3a005f
:10500400400520002011880023c2bf000018a3001f
:10501400fdff3a00000220002011880023c2bf00d7
:105024000018a300fdff3a00a0032000201188000f
:1050340023c2bf000018a300fdff3a0000022000b5
:10504400201188005ac0b30002712200030020001e
:105054000800be00f0ee070002c3b3008240400027
:1050640023c2bf000018a300fdff3a000180fb002b
:105074002011880002712200030020000800be00f5
:10508400f5ee0700a200200003002000f5ee070063
:105094000004be000a45e900ebff3a0023c2bf004a
:1050a4000018a300fdff3a00000220002011880030
:1050b40023c2bf000018a300fdff3a00b006200081
:1050c4002011880023c2bf000018a300fdff3a008e
:1050d400700620002011880023c2bf000018a3001e
:1050e400fdff3a00d00020002011880023c2bf0039
:1050f4000018a300fdff3a00a00020002011880042
:1051040023c2bf000018a300fdff3a005005200091
:105114002011880023c2bf000018a300fdff3a003d
:10512400e00420002011880023c2bf000018a3005f
:10513400fdff3a00900420002011880023c2bf0024
:105144000018a300fdff3a0040052000201188004c
:1051540023c2bf000018a300fdff3a000002200094
:105164002011880023c2bf000018a300fdff3a00ed
:10517400000220002011880023c2bf000018a300f1
:10518400fdff3a00000220002011880023c2bf0066
:105194000018a300fdff3a00a0032000201188009e
:1051a40023c2bf000018a300fdff3a000002200044
:1051b4002011880058c0b3000271220003002000af
:1051c4000c00be0094ee070002c3b300824040000e
:1051d40023c2bf000018a300fdff3a000180fb00ba
:1051e4002011880002712200030020000c00be0080
:1051f40099ee0700a20020000300200099ee0700aa
:105204000006be000844e900ebff3a0023c2bf00d9
:105214000018a300fdff3a000002200020118800be
:1052240023c2bf000018a300fdff3a007005200050
:105234002011880023c2bf000018a300fdff3a001c
:10524400f00620002011880023c2bf000018a3002c
:10525400fdff3a00e00620002011880023c2bf00b1
:105264000018a300fdff3a00d000200020118800a0
:1052740023c2bf000018a300fdff3a00a0002000d5
:1052840020118800d1c0b3000202200023c2bf0055
:105294000018a300fdff3a00221188008140e900b4
:1052a400faff3a0023c2bf000018a300fdff3a0032
:1052b400f00220002011880023c2bf000018a300c0
:1052c400fdff3a00100320002011880023c2bf0014
:1052d4000018a300fdff3a000003200020118800fd
:1052e40023c2bf000018a300fdff3a000003200002
:1052f4002011880023c2bf000018a300fdff3a005c
:10530400700620002011880023c2bf000018a300eb
:10531400fdff3a00d00020002011880023c2bf0006
:105324000018a300fdff3a00a0002000201188000f
:1053340023c2bf000018a300fdff3a00400520006f
:105344002011880023c2bf000018a300fdff3a000b
:10535400f00420002011880023c2bf000018a3001d
:10536400fdff3a00400520002011880023c2bf0041
:105374000018a300fdff3a0010042000201188004b
:1053840023c2bf000018a300fdff3a00c0042000a0
:105394002011880023c2bf000018a300fdff3a00bb
:1053a400000220002011880023c2bf000018a300bf
:1053b400fdff3a00000220002011880023c2bf0034
:1053c4000018a300fdff3a00a0032000201188006c
:1053d40023c2bf000018a300fdff3a000002200012
:1053e4002011880068c0b300026a2800130020005e
:1053f4001fb89700afb8970007ee070002c3b300c9
:105404008240400023c2bf000018a300fdff3a0001
:105414000180fb0020118800026a2800130020008c
:105424001fb89700afb897000bee0700a20020004a
:10543400030020000bee070090bf9f00a1bf9f0058
:105444000844e900e8ff3a0023c2bf000018a300a3
:10545400fdff3a00000220002011880023c2bf0093
:105464000018a300fdff3a007005200020118800f9
:1054740023c2bf000018a300fdff3a00f00620007d
:105484002011880023c2bf000018a300fdff3a00ca
:10549400e00620002011880023c2bf000018a300ea
:1054a400fdff3a00d00020002011880023c2bf0075
:1054b4000018a300fdff3a00a0002000201188007e
:1054c40041c1b300d202200023c2bf000018a300d0
:1054d400fdff3a00221188008140e900faff3a00fa
:1054e400e20d2100124178008000eb000b00370030
:1054f40023c2bf000018a300fdff3a00d000200023
:105504002011880023c2bf000018a300fdff3a0049
:10551400a0002000201188008100e800814f510084
:10552400f3ff3e0060fe070069fd07004f06be0062
:105534004f0578004f04be000080fa00000006000a
:105544000400fa00889fbe008a9fbe008c9fbe00a4
:105554000004be00cc8a8000dd8a8000fb4380000a
:10556400a2002000030020000044800011448000b9
:10557400bced070080bf9f0091bf9f0027fe07007e
:1055840023c2bf000018a300fdff3a00d000200092
:105594002011880023c2bf000018a300fdff3a00b9
:1055a400a00020002011880023c2bf000018a3001f
:1055b400fdff3a00700520002011880023c2bf00bf
:1055c4000018a300fdff3a005004200020118800b9
:1055d40023c2bf000018a300fdff3a00900420007e
:1055e4002011880023c2bf000018a300fdff3a0069
:1055f400700420002011880023c2bf000018a300fb
:10560400fdff3a00800420002011880023c2bf005f
:105614000018a300fdff3a00400520002011880077
:1056240023c2bf000018a300fdff3a0000022000bf
:105634002011880023c2bf000018a300fdff3a0018
:10564400a00320002011880023c2bf000018a3007b
:10565400fdff3a0000022000201188005ac0b30068
:1056640002712200030020000800be006aed07005a
:1056740002c3b3008240400023c2bf000018a3004d
:10568400fdff3a000180fb00201188000271220016
:10569400030020000800be006fed0700a2002000f8
:1056a400030020006fed07000004be000a45e90076
:1056b400ebff3a0023c2bf000018a300fdff3a002d
:1056c400000220002011880023c2bf000018a3009c
:1056d400fdff3a00b00620002011880023c2bf005d
:1056e4000018a300fdff3a00700620002011880076
:1056f40023c2bf000018a300fdff3a00d000200021
:105704002011880023c2bf000018a300fdff3a0047
:10571400a00020002011880023c2bf000018a300ad
:10572400fdff3a00500520002011880023c2bf006d
:105734000018a300fdff3a00e004200020118800b7
:1057440023c2bf000018a300fdff3a00900420000c
:105754002011880023c2bf000018a300fdff3a00f7
:10576400400520002011880023c2bf000018a300b8
:10577400fdff3a00000220002011880023c2bf0070
:105784000018a300fdff3a00000220002011880049
:1057940023c2bf000018a300fdff3a00000220004e
:1057a4002011880023c2bf000018a300fdff3a00a7
:1057b400a00320002011880023c2bf000018a3000a
:1057c400fdff3a00000220002011880058c0b300f9
:1057d40002712200030020000c00be000eed070041
:1057e40002c3b3008240400023c2bf000018a300dc
:1057f400fdff3a000180fb002011880002712200a5
:10580400030020000c00be0013ed0700a2002000de
:105814000300200013ed07000006be000844e90061
:10582400ebff3a0023c2bf000018a300fdff3a00bb
:10583400000220002011880023c2bf000018a3002a
:10584400fdff3a00700520002011880023c2bf002c
:105854000018a300fdff3a00f00620002011880084
:1058640023c2bf000018a300fdff3a00e006200099
:105874002011880023c2bf000018a300fdff3a00d6
:10588400d00020002011880023c2bf000018a3000c
:10589400fdff3a00a000200020118800d1c0b30011
:1058a4000202200023c2bf000018a300fdff3a003b
:1058b400221188008140e900faff3a0023c2bf00a8
:1058c4000018a300fdff3a00f00220002011880018
:1058d40023c2bf000018a300fdff3a0010032000fc
:1058e4002011880023c2bf000018a300fdff3a0066
:1058f400000320002011880023c2bf000018a30069
:10590400fdff3a00000320002011880023c2bf00dd
:105914000018a300fdff3a00700620002011880043
:1059240023c2bf000018a300fdff3a00d0002000ee
:105934002011880023c2bf000018a300fdff3a0015
:10594400a00020002011880023c2bf000018a3007b
:10595400fdff3a00300420002011880023c2bf005c
:105964000018a300fdff3a00f00420002011880075
:1059740023c2bf000018a300fdff3a005005200019
:105984002011880023c2bf000018a300fdff3a00c5
:10599400e00420002011880023c2bf000018a300e7
:1059a400fdff3a00400520002011880023c2bf00fb
:1059b4000018a300fdff3a00000220002011880017
:1059c40023c2bf000018a300fdff3a00000220001c
:1059d4002011880023c2bf000018a300fdff3a0075
:1059e400a00320002011880023c2bf000018a300d8
:1059f400fdff3a00000220002011880034c0b300eb
:105a040043062000110009008385d80002c3b300b7
:105a14008240400023c2bf000018a300fdff3a00eb
:105a24000180fb0020118800110009008385d80043
:105a3400010078006a00b900800578000442e9009a
:105a4400f0ff3a0023c2bf000018a300fdff3a0094
:105a5400000220002011880023c2bf000018a30008
:105a6400fdff3a00500420002011880023c2bf002b
:105a74000018a300fdff3a00100420002011880044
:105a840023c2bf000018a300fdff3a00d00020008d
:105a94002011880023c2bf000018a300fdff3a00b4
:105aa400a00020002011880023c2bf000018a3001a
:105ab400fdff3a00400520002011880023c2bf00ea
:105ac4000018a300fdff3a00f00420002011880014
:105ad40023c2bf000018a300fdff3a0040052000c8
:105ae4002011880023c2bf000018a300fdff3a0064
:105af400100420002011880023c2bf000018a30056
:105b0400fdff3a00c00420002011880023c2bf001a
:105b14000018a300fdff3a000002200020118800b5
:105b240023c2bf000018a300fdff3a0000022000ba
:105b34002011880023c2bf000018a300fdff3a0013
:105b4400a00320002011880023c2bf000018a30076
:105b5400fdff3a00000220002011880068c0b30055
:105b6400026a2800130020000fb897009fb897001e
:105b740029ec070002c3b3008240400023c2bf00e7
:105b84000018a300fdff3a000180fb0020118800eb
:105b9400026a2800130020000fb897009fb89700ee
:105ba4002dec0700a2002000030020002dec0700cc
:105bb40080bf9f0091bf9f000844e900e8ff3a00be
:105bc40023c2bf000018a300fdff3a00000220001a
:105bd4002011880023c2bf000018a300fdff3a0073
:105be400700520002011880023c2bf000018a30004
:105bf400fdff3a00f00620002011880023c2bf00f8
:105c04000018a300fdff3a00e006200020118800e0
:105c140023c2bf000018a300fdff3a00d0002000fb
:105c24002011880023c2bf000018a300fdff3a0022
:105c3400a00020002011880041c1b300d20220003e
:105c440023c2bf000018a300fdff3a002211880000
:105c54008140e900faff3a00e20d21001241780088
:105c64008000eb000b00370023c2bf000018a30024
:105c7400fdff3a00d00020002011880023c2bf009d
:105c84000018a300fdff3a00a000200020118800a6
:105c94008100e800814f5100f3ff3e0082fc0700c1
:105ca4008bfb07004f06be004f05be004f04be002d
:105cb4000080fa0000000600889fbe008a9fbe0094
:105cc4008c1f780082fb0700a1412a0010c0b3009a
:105cd40005250700da50e200c300320011422a0011
:105ce40010c0b30000250700310037001000200069
:105cf40000a0880056f4b700c100370023c2bf00db
:105d04000018a300fdff3a00f001200020118800d4
:105d140023c2bf000018a300fdff3a0020012000a9
:105d24002011880023c2bf000018a300fdff3a0021
:105d34002422ef0023c2bf0062446000fdff3a004a
:105d440010032000201188008002200001002000a0
:105d5400ef2807005514ab0002003a004414ab00ce
:105d6400130032007412070031c6b300814f500093
:105d74000f003a001000200000a088000700370040
:105d84000844e8000ec8bf000044e100d7ff3e000d
:105d94004006200001002000dd28070030c6b300c3
:105da4005454e30002003a005534ab00f4ff3a00c7
:105db4008848e200d1ff3200a1412a0010c0b3009c
:105dc400c9240700eb8820009b457800fa8820004e
:105dd4001a4578000c8920001c4678003cfb07001b
:105de4008002200001002000c928070023c2bf0050
:105df4000018a300fdff3a002001200020118800b4
:105e040023c2bf000018a300fdff3a002422ef00c4
:105e140023c2bf000018a300fdff3a002422ef00b4
:105e240023c2bf000018a300fdff3a002001200098
:105e3400201188008002200001002000b4280700ff
:105e44005514ab0002003a004414ab00fcff3200ce
:105e54003912070080407800ea4f500004003200f5
:105e640030c6b30080cf5000f5ff3a004d00370034
:105e74001000200000a0880023c2bf000018a30067
:105e8400fdff3a00100220002011880023c2bf0049
:105e94000018a300fdff3a003005200020118800ff
:105ea40023c2bf000018a300fdff3a0040052000f4
:105eb4002011880023c2bf000018a300fdff3a0090
:105ec4008b84fb002911880023c2bf000018a300a3
:105ed400fdff3a000a84fb002811880023c2bf009a
:105ee4000018a300fdff3a000c80fb00201188007d
:105ef40031c0b3000203200023c2bf000018a30076
:105f0400fdff3a00221188008140e900faff3a00bf
:105f140023c2bf000018a300fdff3a00d0002000f8
:105f24002011880023c2bf000018a300fdff3a001f
:105f3400a000200020118800800220000100200021
:105f44007328070023c2bf000018a300fdff3a0016
:105f5400200120002011880023c2bf000018a300e4
:105f6400fdff3a002911880023c2bf000018a300d6
:105f7400fdff3a00281188000ac04500f2404000a5
:105f840023c2bf000018a300fdff3a000180fb00fc
:105f94002011880080022000010020005c280700f6
:105fa400110037001000200000a088000044eb001e
:105fb400070037000844e8000ec8bf000044e100b1
:105fc4004aff3e0040062000010020005028070040
:105fd40030c6b3005454e30099ff3a005534ab0083
:105fe400f4ff3a0096ff370081422a0010c0b30044
:105ff4003d240700c02b2000010020004428070096
:106004004f0678004f05be004f04be000000060096
:106014000800fa00889fbe008a9fbe008c9fbe00c5
:106024000005be00cc8a8000dd8a8000b070ef00dd
:106034000001be000c00be000aeb0700a200200015
:106044000300200007eb0700e0b79f00f1b79f00b3
:1060540081c1b300d202200053c2bf000018a300c4
:10606400fdff3a00a21288008140e900faff3a00dd
:1060740053c2bf000018a300fdff3a00d000200067
:10608400a012880053c2bf000018a300fdff3a000d
:10609400a0002000a012880053c2bf000018a30073
:1060a400fdff3a00900b2000a012880053c2bf00ed
:1060b4000018a300fdff3a00b00a2000a0128800d7
:1060c40053c2bf000018a300fdff3a00000b2000dc
:1060d400a012880053c2bf000018a300fdff3a00bd
:1060e400400d2000a012880053c2bf000018a30076
:1060f400fdff3a0000022000a012880053c2bf0036
:106104000018a300fdff3a00a0032000a01288009d
:1061140053c2bf00e2406000fdff3a0000022000cd
:10612400a0128800329f8000439f800082bf9f009e
:1061340093bf9f008144780058c0b30002712200cd
:10614400030020000a00be00b3ea07000041780003
:106154000fba97009fba970023032000830f5200c1
:10616400e08f5a001e003600e34f54000e00320048
:106174000904e0000d003a000004e00004003a00c5
:1061840053c2bf0062406000fdff3a001d003700ab
:1061940004c3b3008440400053c2bf000018a300ee
:1061a400fdff3a001f00370019c0b30005c3b30058
:1061b4008540410053c2bf000018a300fdff3a0010
:1061c4000180fb00a0128800e34f540028003a002d
:1061d40053c2bf000018a300fdff3a00220037009d
:1061e400e44f5400130032000904e00012003a00a6
:1061f4000004e00006003a0053c2bf0062406000a1
:10620400fdff3a005422ef00804478001800370064
:1062140000c3b3008040410053c2bf000018a30074
:10622400fdff3a000180fb00a012880019c0b300f2
:106234000f00370019c0b30003c3b300834041000b
:1062440053c2bf000018a300fdff3a000180fb0009
:10625400a0128800e44f540005003a0053c2bf0066
:106264000018a300fdff3a00e0022000a0128800fd
:1062740002712200030020000a00be0076ea070033
:10628400a20020000300200076ea07000005be00fb
:106294000844e900a9ff3a0053c2bf000018a30054
:1062a400fdff3a0000022000a012880053c2bf0084
:1062b4000018a300fdff3a00b0062000a0128800d9
:1062c40053c2bf000018a300fdff3a00700620006f
:1062d400a012880053c2bf000018a300fdff3a00bb
:1062e400d0002000a012880053c2bf000018a300f1
:1062f400fdff3a00a0002000a012880053c2bf0096
:106304000018a300fdff3a00400b2000a0128800f3
:1063140053c2bf000018a300fdff3a00c00d2000c7
:10632400a012880053c2bf000018a300fdff3a006a
:10633400000b2000a012880053c2bf000018a30065
:10634400fdff3a00100a2000a012880053c2bf00cb
:106354000018a300fdff3a0000022000a0128800ec
:1063640053c2bf000018a300fdff3a00a0032000a1
:10637400a012880053c2bf00e2406000fdff3a0053
:1063840000022000a01288008144780058c0b300a5
:1063940002712200030020000c00be001eea070068
:1063a4000904e00019003a000004e00006003a0085
:1063b40053c2bf0062406000fdff3a005422ef0068
:1063c400804478001f00370004c3b30084404000b9
:1063d40053c2bf000018a300fdff3a000180fb0078
:1063e400a012880019c0b300e44f540015003a000d
:1063f40053c2bf000018a300fdff3a00c0022000f2
:10640400a012880019c0b3000e00370005c3b30002
:106414008540400053c2bf000018a300fdff3a00ae
:106424000180fb00a0128800e44f540005003a00ec
:1064340053c2bf000018a300fdff3a00c0022000b1
:10644400a012880002712200030020000c00be008c
:1064540001ea0700a20020000300200001ea07006f
:106464000006be000844e900c9ff3a0053c2bf0059
:106474000018a300fdff3a00f00b2000a0128800d2
:1064840053c2bf000018a300fdff3a00800f200094
:10649400a012880053c2bf000018a300fdff3a00f9
:1064a40000022000a012880053c2bf000018a300fd
:1064b400fdff3a00f0022000a012880053c2bf0082
:1064c4000018a300fdff3a0000022000a01288007b
:1064d400d350e20013003a0053c2bf000018a300d7
:1064e400fdff3a0010032000a012880053c2bf0031
:1064f4000018a300fdff3a0000032000a01288004a
:1065040053c2bf000018a300fdff3a00000320009f
:10651400a012880053c2bf000018a300fdff3a0078
:106524000d00370053c2bf000018a300fdff3a005e
:1065340010032000a012880053c2bf000018a3005b
:10654400fdff3a00b0062000a012880053c2bf002d
:106554000018a300fdff3a0070062000a012880076
:1065640053c2bf000018a300fdff3a00d000200072
:10657400a012880053c2bf000018a300fdff3a0018
:10658400a0002000a012880053c2bf000018a3007e
:10659400fdff3a00000b2000a012880053c2bf0088
:1065a4000018a300fdff3a00100a2000a012880082
:1065b40053c2bf000018a300fdff3a00000b2000e7
:1065c400a012880053c2bf000018a300fdff3a00c8
:1065d400d00d2000a012880053c2bf000018a300f1
:1065e400fdff3a0000022000a012880053c2bf0041
:1065f4000018a300fdff3a00a0032000a0128800a9
:1066040053c2bf00e2406000fdff3a0000022000d8
:10661400a01288008144780068c0b300026a280090
:10662400130020006fb09700ffb097007ae90700cd
:10663400004178000904e00019003a000004e00079
:1066440006003a0053c2bf0062406000fdff3a00fa
:106654005422ef00804478001f00370000c3b300c9
:106664008040410053c2bf000018a300fdff3a0060
:106674000180fb00a012880019c0b300e44f54004d
:1066840015003a0053c2bf000018a300fdff3a00f2
:10669400c0022000a012880019c0b3000e00370009
:1066a40003c3b3008340400053c2bf000018a300db
:1066b400fdff3a000180fb00a0128800e44f540063
:1066c40005003a0053c2bf000018a300fdff3a00c2
:1066d400c0022000a0128800026a280013002000d3
:1066e4006fb09700ffb097005be90700a20020009d
:1066f400030020005be90700e0b79f00f1b79f00ab
:106704000844e900c5ff3a0053c2bf000018a300c3
:10671400fdff3a00f00b2000a012880053c2bf0016
:106724000018a300fdff3a00800f2000a01288008b
:1067340053c2bf000018a300fdff3a00d0002000a0
:10674400a012880053c2bf000018a300fdff3a0046
:10675400a0002000a012880081c1b300d202200052
:1067640053c2bf000018a300fdff3a00a212880024
:106774008140e900faff3a00e20d2100124178005d
:106784008000eb000b00370053c2bf000018a300c9
:10679400fdff3a00d0002000a012880053c2bf00c1
:1067a4000018a300fdff3a00a0002000a0128800fa
:1067b4008100e800814f5100f3ff3e008002200079
:1067c40001002000522607004f06be004f05be0000
:1067d4004f04be000080fa0000000600cf05b000a0
:1067e400889fbe008a9fbe008c9fbe008e1f7800cb
:1067f40000477800d2b79f00e3b79f00f4b79f002b
:1068040085bf9f0080f92f000f004000d2c3b30062
:10681400f800400002587800810f5000fdff3a0054
:10682400d0c0b30080779f00a0c0b30090779f00d2
:1068340050c5b300a0779f0079404000b0779f0017
:1068440092c6b300c2779f0066404000d0779f0095
:1068540001c2b300e1779f0000c5b300f0779f0049
:1068640020c7b300807f9f00927f9f006f4050003d
:10687400a07f9f0000c0e800b07f9f00c17f9f0001
:10688400a0c3b300d07f9f00e17f9f00ca8a80002d
:10689400db8a800079c2b3008046eb005cc0b300a1
:1068a4000984fb0002712200030020000a00be00dc
:1068b400d9e807000043b00084f92f000f0242001a
:1068c400840044008048780002c3b300824f500023
:1068d40005003a000d04e00003003a0000c2b300d2
:1068e40080487800010037001dc0b3000944e80067
:1068f40002712200030020000a00be00d6e807004f
:10690400a200200003002000d6e807000005be0016
:106914000c46e9000200320088447800e0ff3700aa
:106924000880fb0002c2b30085f92f008082420078
:1069340082f27f0009c0e8000080fb00f1c2b300ce
:1069440083f92f008081410081f17f0063c04400fe
:106954000080fb0085f92f008082420082f27f00d4
:1069640064c044000081fb00e5c04400e6c144006b
:1069740067c24400d350e20014003a0010c3b300cd
:1069840085f92f008282420080f27f000180fb00a3
:1069940001c3b30082f92f000001410001f17f001f
:1069a4000380fb0086f92f000003430001f37f00fe
:1069b4008480fb0070c6b30083f92f0081814100fd
:1069c40080f17f0068c444000f00370010c3b30097
:1069d40085f92f008282420080f27f008180fb00d3
:1069e400b0c6b30082f92f000101410000f17f001d
:1069f4008380fb006440500086f92f0001034300ac
:106a040000f37f00044478008880fb00d0c0b3000a
:106a140083f92f008181410080f17f000840e80064
:106a24000080fb00a1c0b30085f92f0080824200e2
:106a340081f27f0008c0e8000080fb0071c5b3004c
:106a440082f92f000001410001f17f0063404400fe
:106a54000080fb00eec0400084f92f0000024200d9
:106a640001f27f00644044000080fb00e4c0400069
:106a740086f92f000003430001f37f0065404400c2
:106a84000080fb0081c0e90083f92f008081410070
:106a940081f17f00664044000080fb008140e800f3
:106aa40085f92f008082420081f27f006740440014
:106ab4000080fb00ecc0400082f92f00000141007f
:106ac40001f17f00684044000080fb0002c2b30073
:106ad40084f92f000002420002f27f006940440062
:106ae4000080fb00a1c3b30086f92f00000343001c
:106af40001f37f006a4044000080fb0084f92f000a
:106b04000002420002f27f00eb444400913b21006a
:106b14009140780000cfb30000c6600063003200eb
:106b24005fb59700efb597007dc0b3000043eb005d
:106b340086ef9f003c003700e2cf560011003a0078
:106b440000c2b300804f560037003a000981fb00b1
:106b54000200e90083f92f008f8141008300400087
:106b6400914f160002003a0000c3b3008048780039
:106b7400e0c2b30084f92f000202420000f27f0059
:106b840027003700e3cf560012003a0000c4b300d8
:106b9400804f560024003a000981fb000200e900fe
:106ba40086f92f000f0343008600400000c2b300a3
:106bb400914f100002003a00704040008048780075
:106bc400e0c2b30081f92f008280400080f07f0092
:106bd40013003700e4cf560013003a0000c6b30098
:106be400804f560010003a000981fb000200e900c2
:106bf40084f92f000f0242008400400000c2b30059
:106c0400914f100002003a00704040008048780024
:106c1400e0c2b30085f92f008282420080f27f0037
:106c24008944e8001e0037000984fb00026a28003a
:106c3400130020000a00be00f7e707000043b0007d
:106c440082f92f000f01410082004400804878003f
:106c540002c3b300824f500006003a008fe9970048
:106c64000304e00003003a0000c2b3008048780047
:106c74000200370014c0b30084ef9f008944e80089
:106c8400026a2800130020000a00be00f2e7070091
:106c9400a200200003002000f2e707000005be0068
:106ca4008d46e900a4ff3a00220037005fb5970043
:106cb400efb597008c4678007cc0b3000984fb00d4
:106cc40002242400f30020000a00be00d2e70700db
:106cd4000043b00085f92f008f82420085004400f4
:106ce4008048780002c3b300824f500005003a0088
:106cf4000d04e00003003a0000c2b30080487800ad
:106d0400010037001dc0b3008944e80002242400b8
:106d1400f30020000a00be00cfe70700a200200015
:106d240003002000cfe707000005be000c46e90081
:106d3400e2ff3a008980fb00b0c6b30086f92f0059
:106d44000103430000f37f000940e8000080fb00da
:106d540071c6b30083f92f008081410081f17f0067
:106d640009c0e8000080fb00d1c0b30085f92f0002
:106d74008082420081f27f0063c044000080fb00f7
:106d8400a1c0b30082f92f000001410001f17f008e
:106d940064c044000080fb0001c5b30084f92f00e7
:106da4000002420001f27f0065c044000080fb0045
:106db40021c7b30086f92f000003430001f37f00cd
:106dc40066c044000080fb00e9c0500083f92f0036
:106dd4008081410081f17f0067c044000080fb0096
:106de400e6c0500085f92f008082420081f27f00c6
:106df40068c044000080fb0081c0e80082f92f00d5
:106e04000001410001f17f0069c044000080fb00e3
:106e140002c2b30084f92f000002420002f27f0094
:106e24006ac044000080fb00a1c3b30086f92f00b0
:106e34000003430001f37f006bc044000080fb00ab
:106e440084f92f000002420002f27f00ecc44400e7
:106e540002242400f30020007fb097008fb897002d
:106e64007de707000005be008046eb007cc0b30050
:106e74000984fb0002242400f30020000a00be0061
:106e840065e707000043b00086f92f000f034300b5
:106e9400860044008048780002c3b300824f50004b
:106ea40005003a000d04e00003003a0000c2b300fc
:106eb40080487800010037001dc0b3000944e80091
:106ec40002242400f30020000a00be0062e7070049
:106ed400a20020000300200062e707000005be00b6
:106ee4000c46e9000200320088447800e0ff3700d5
:106ef4008880fb00d0c0b30082f92f00010141005b
:106f040000f17f0009c0e8000080fb00a1c0b300cd
:106f140084f92f000002420001f27f00e3c0440024
:106f24008001eb00e34f57000b0032001a003700da
:106f34000080fb0086f92f000003430066c17f0038
:106f440053c2bf000018a300fdff3a000280fb00fb
:106f5400a01288008301e8000340780081cf51002b
:106f6400f3ff3900e20d2100124178008000eb00ac
:106f74000600370053c2bf000018a300fdff3a000b
:106f8400a0002000a01288008100e800814f510079
:106f9400f8ff3e003b0037008001eb00e14f570053
:106fa4000b0032001a0037000080fb0084f92f0028
:106fb4000002420064c17f0023c2bf000018a30086
:106fc400fdff3a000280fb00201188008301e800e5
:106fd4000340780081cf5100f3ff3900e20d210016
:106fe400124178008000eb000600370023c2bf0086
:106ff4000018a300fdff3a00a00020002011880023
:107004008100e800814f5100f8ff3e001d00370069
:107014008001eb00e44f57000b00320019003700e9
:107024000080fb0085f92f008082420065c17f004b
:10703400b3c2bf000018a300fdff3a000280fb00aa
:10704400a01588008301e8000340780081cf510037
:10705400f3ff3900e20d2100124178008000eb00bb
:1070640006003700b3c2bf000018a300fdff3a00ba
:10707400a0002000a01588008100e800814f510085
:10708400f8ff3e004f0778004f06be004f05be00d4
:107094004f04be00cf05b100000006000f03b0008e
:1070a400889fbe008a9fbe008c9fbe008e1f780002
:1070b40000477800c1ef9f000205be00f4b79f00af
:1070c40085bf9f00a610e20004003200f0c4b300a4
:1070d400c0c79f00634050000f003700b851e20062
:1070e4000400320080c4b300c0c79f006440500055
:1070f40009003700b453e2000400320030c5b30085
:10710400c0c79f000040e8000300370050c5b3002b
:10711400c0c79f0000c0e900d0c79f00c0c2b30031
:10712400e0c79f0004c2b300f4c79f005754e200b5
:10713400010032000224a000b653e2000100320034
:107144000214a000b551e200010032000204a000c4
:10715400c30a2100934178000304e00001003200d7
:107164000234a000b453e200010032000244a00043
:10717400913b21009140780000cfb30000c660002d
:10718400844f560002003a000274a0000900370040
:1071940000c4b300804f560002003a000c41710055
:1071a4000400370000c6b300804f560001003a00c7
:1071b4000254a00082cf9f00c0c2b30090cf9f00b2
:1071c4000304e000020032000040e8000100370040
:1071d400b0c2b300a0cf9f00e24f570020003a0096
:1071e4000304e000030032006000b800f0b79f0021
:1071f40081bf9f0002242400f30020007fb0970089
:107204008fb8970094e607000004be00b1fc2f007d
:107214000185470002242400f30020000800be007a
:107224007de6070002c3b300025d4000022424008f
:10723400f30020000800be0087e60700a20020003b
:107244000300200087e607000004be0023fd2f0092
:1072540003804700800f5500eeff3a001800370006
:10726400e44f57001b003a00c88a8000d98a800086
:10727400b4fc2f000485470002242400f3002000fe
:107284000800be0064e6070002c3b300025d4000cc
:1072940002242400f30020000800be006ee607006c
:1072a400a2002000030020006ee607000004be00d8
:1072b40023fd2f0003804700800f5500eeff3a00a6
:1072c40000c2b300a0d79f00b0d79f0002c1b30093
:1072d400b5003700b851e200020032004a8d800048
:1072e4005b8d80000c04e0003b0032007dc0b300e5
:1072f4008d44780022003700e2cf560009003a009e
:1073040000c2b300804f56001d003a008980fb0084
:107314006e40400044fc2f000102420000f27f0056
:1073240015003700e3cf560009003a0000c4b3004b
:10733400804f560012003a008980fb0072405000d2
:1073440043fc2f008181410080f17f000a00370057
:10735400e4cf56000a003a0000c6b300804f56003e
:1073640007003a008980fb00e0c2b30042fc2f0012
:107374000101410000f17f008944e8001300370057
:107384000984fb0044fc2f000f0242000404440063
:10739400026a2800130020000a00be001ee607004f
:1073a40002c3b300024c40008944e800026a28008a
:1073b400130020000a00be0027e60700a2002000f8
:1073c4000300200027e607000005be008d46e90003
:1073d400c9ff3a0015003700b3fc2f0003844700af
:1073e40002242400f30020000a00be000ae607007d
:1073f40004c3b300045c400002242400f300200012
:107404000a00be0014e60700a200200003002000ca
:1074140014e607000005be0021fd2f00018047008f
:10742400800f5400eeff3a00e9c0b3008980fb00ee
:10743400b0c6b30042fc2f000101410000f17f00ff
:107444000940e8000080fb0071c6b30044fc2f0033
:107454000002420001f27f0009c1e800e14f570039
:1074640051003a008280fb00c0c2b30043fc2f00ed
:107474008181410080f17f00e3c44400ca8a800016
:10748400db8a80005cc0b3000984fb0040fc2f0051
:107494000f00400000044400027122000300200099
:1074a4000a00be00dce5070002c3b300024c400042
:1074b4000944e80002712200030020000a00be0013
:1074c400e5e50700a200200003002000e5e5070031
:1074d4000005be000c46e900020032008844780032
:1074e400e9ff37008880fb00c0c2b30043fc2f00d3
:1074f4008181410080f17f0089c4e80002242400d6
:10750400f30020007fb097008fb89700d2e5070002
:107514000005be007cc0b3000984fb0040fc2f00c2
:107524000f0040000004440002242400f300200063
:107534000a00be00b8e5070002c3b300024c4000d5
:107544000944e80002242400f30020000a00be00dd
:10755400c1e50700a200200003002000c1e50700e8
:107564000005be000c46e9000200320088447800a1
:10757400e9ff37008880fb00d0c0b30043fc2f0034
:107584008181410080f17f0009c0e8000080fb0098
:10759400a1c0b30042fc2f000001410001f17f00b3
:1075a400e3c044000c0037008280fb00d0c0b3006d
:1075b40044fc2f000102420000f27f000240e80078
:1075c4000080fb00a1c0b30044fc2f000002420075
:1075d40001f27f0082c0e8008001eb004fea9700cf
:1075e400e14f52000b0032000e0037000080fb0018
:1075f40044fc2f000002420064c17f0023c2bf008c
:107604000018a300fdff3a000280fb00201188004f
:107614008301e8000340780081cf5100f3ff390073
:10762400380037008001eb004fe89700e24f50002c
:107634000b0032000e0037000080fb0044fc2f00da
:107644000002420064c17f0033c2bf000018a300df
:10765400fdff3a000280fb00a01188008301e800ce
:107664000340780081cf5100f3ff39002500370033
:107674008001eb004fe89700e34f50000b0032000d
:107684000e0037000080fb0044fc2f000002420083
:1076940064c17f0053c2bf000018a300fdff3a007d
:1076a4000280fb00a01288008301e80003407800f8
:1076b40081cf5100f3ff3900120037008001eb0045
:1076c4004fe89700e44f50000b0032000d003700e4
:1076d4000080fb0044fc2f000002420064c17f00d4
:1076e400b3c2bf000018a300fdff3a000280fb00f4
:1076f400a01588008301e8000340780081cf510081
:10770400f3ff39004f0778004f06be004f05be0057
:107714004f04be000f03b10000000600881f78006c
:107724008a9fbe008c9fbe00000b210011c0b300d5
:1077340090cf100003003a00b09e8000c19e8000ec
:1077440033fa0700dad0bf0005003200e34f5000df
:1077540003003200e44f500061033a000b0037008d
:10776400e44f5000090032000004e00002003a0037
:1077740038c0b30006003700e34f500004003a005d
:10778400a6f5070018c0b3000100370048c0b300d5
:10779400e0d0bf00e14f50000d003a00b851e200c4
:1077a40004003a006022b800b29e8000c39e8000ac
:1077b400030037006022b800428d8000538d8000a2
:1077c400884078000040eb0034fe07003e03370099
:1077d400e24f500005003a004440800055408000cc
:1077e4006011b80088407800f7ff3700e34f50007d
:1077f40007003a004440800055408000b29e80005b
:10780400c39e80008840780010c0b300eeff3700ac
:10781400e44f50002a003a00b453e2002a03320035
:10782400b49e8000c59e800027d6bf000080fb0068
:10783400320e2100124178000281fb000280b9005f
:10784400cf80de00800f5200818f5a001300360073
:10785400b851e2000a003200408d8000518d800052
:1078640010b4880021b48800c28a8000d38a8000c2
:10787400fce407000041eb00a91c070002003700ec
:1078840014b4880025b48800404080005140800032
:10789400f0b3880001b488001b0037008656e2006c
:1078a40009033200f4b3800005b4800012b48000f0
:1078b40023b4800008407800c8fb0700d1003700db
:1078c400e54f50001b003a00b453e200fe023200c0
:1078d400b49e8000c59e800027d6bf000080fb00b8
:1078e400320e2100124178000281fb000280b900af
:1078f400cf80de00800f5200818f5a0005003600d1
:1079040014b4880025b4880010c0b30086f6b7000c
:10791400ed0237008656e200eb0232006022b80026
:1079240012b4800023b48000884078000040eb004b
:1079340035003700e64f50001b003a00b453e20014
:10794400e102320027d6bf000080fb00320e210086
:10795400124178000281fb000280b900cf80de0072
:10796400b29e8000c39e8000800f5100818f590019
:1079740005003600404080005140800010b488006b
:1079840021b48800e0ff37008656e200ce023200c0
:1079940014b4800025b480006011b80088407800d9
:1079a40020c0b30018003700e74f500018003a0019
:1079b400b453e200c4023200b49e8000c59e80002d
:1079c40027d6bf000080fb00320e21001241780050
:1079d4000281fb000280b900cf80de00800f5200dc
:1079e400818f5a00a6ff3e008656e200b60232009e
:1079f400f4b3800005b4800012b4800023b4800086
:107a04008840780010c0b300a4fd07007d00370053
:107a1400e84f50001e003a00b851e2006d003200f9
:107a24008656e2006b003a0027d6bf000080fb00b8
:107a3400320e2100124178000281fb000280b9005d
:107a4400cf80de00b29e8000c39e8000800f510074
:107a5400818f59006b003600c28a8000d38a80006f
:107a6400408d8000518d80007ee407000041eb00d2
:107a74002b1c07004440800055408000428d80004c
:107a8400538d80000840780054fb07009eff3700a8
:107a9400e94f500016003a00b851e2004d003200a0
:107aa4008656e2004b003a0027d6bf000080fb0058
:107ab400320e2100124178000281fb000280b900dd
:107ac400cf80de00b29e8000c39e8000800f5100f4
:107ad400818f59004b0036006022b800428d80002f
:107ae400538d8000884078000040eb003700370059
:107af400ea4f50001d003a00b851e2003500320050
:107b04008656e20033003a0027d6bf000080fb000f
:107b1400320e2100124178000281fb000280b9007c
:107b2400cf80de00b29e8000c39e8000800f510093
:107b3400818f590033003600c28a8000d38a8000c6
:107b4400408d8000518d800046e407000041eb0029
:107b5400f31b070044408000554080006011b800ca
:107b64008840780020c0b30018003700eb4f500065
:107b740026003a00b851e200160032008656e200b0
:107b840014003a0027d6bf000080fb00320e21000b
:107b9400124178000281fb000280b900cf80de0030
:107ba400b29e8000c39e8000800f5100818f5900d7
:107bb400140036004440800055408000428d80000f
:107bc400538d80008840780010c0b30033fd070057
:107bd4004dff370027d6bf000080fb00320e210086
:107be400124178000281fb000280b900cf80de00e0
:107bf400b29e8000c39e8000800f5100818f590087
:107c040031023e008676ef002f023700ec4f500021
:107c14002d023a00f655e2002b023200815f21006a
:107c24009140780020c5b30080cf5000040032009a
:107c34006540400080cf50001d023a002800370004
:107c4400915f21009140780070c5b30080cf50004f
:107c540006003a006022b800b29e8000c39e8000f5
:107c640031c0b3000040eb000800370050c5b3003a
:107c740080cf500007003a006022b800c28a80001a
:107c8400d38a800031c0b30040c0b30003fd0700b5
:107c94000702370000c5b30080cf500006003a0049
:107ca40044408000554080006011b80031c0b300ea
:107cb40020c0b300f5ff370010c4b30080cf5000dc
:107cc400fb013a004440800055408000b29e800091
:107cd400c39e800031c0b30010c0b300ebff370077
:107ce400915f210091407800a0c5b30080cf50007f
:107cf40002003a009f150700ed01370042c5b300aa
:107d040082cf500002003a001c160700e801370039
:107d140080c4b30080cf500002003a00631607000d
:107d2400e3013700b0c4b30080cf50009c003a0098
:107d340002407800fa55e300dd013a008236ef0094
:107d44008436ef00b15f21009140780004cdb30088
:107d540004c04000e94f500007003e000180fb00d2
:107d64000003b100027122000280b900cf80de005e
:107d740010b4880021b48800c15f210091407800cc
:107d840004c04000e94f50000b003e000180fb009e
:107d94000003b100823e20000280b900cf80de00e3
:107da40012b4800023b480000001410081814900a5
:107db40012b4880023b48800d15f21009140780078
:107dc40004c04000e94f50000c003e000181fb005c
:107dd400400620000091b90000d42e0002004000ab
:107de400cf80de0012b4800023b480000001410083
:107df4008181490012b4880023b48800e15f210026
:107e04009140780004c04000e94f50000c003e004f
:107e140001407800a2c0b3000440bc0000e22f007f
:107e2400000041006101b90010b4800021b4800059
:107e3400020040008380480010b4880021b4880008
:107e4400f15f21009140780004c04000e94f5000e8
:107e540009003e000180fb000003b100cf80de007a
:107e640012b4800023b480000001410081814900e4
:107e740012b4880023b48800b653e2003d003a00ef
:107e840072622100124178000281fb00030020008d
:107e940010b4800021b480005fe307004201200099
:107ea400030020006fe307000001be00e00f500054
:107eb400e08f580003003500a5e207000006be006d
:107ec4000a00370061006000010020008301d10036
:107ed4000281d30002007000838070009ce20700de
:107ee4000001be00ace107000006be00e89d800072
:107ef4006140b90096e207000005be000800e000fa
:107f040004003d000200200003782400a2e10700e1
:107f14000005be00d89d80006140b9008ce20700d6
:107f24000800e00003003d00020020000378240064
:107f340099e107000001be000a00be00f3e107005a
:107f44000001be000c00be00f0e1070044e207009f
:107f5400929e8000a39e800000014100818149001f
:107f6400929f8800a39f880010c0b300b6f3b700a7
:107f740005003700909e8000a19e8000909f88009d
:107f8400a19f8800b673ef008236ef008436ef00bd
:107f9400c02b2000e08488003d0507004401370021
:107fa40030c4b30080cf500061003a0072404000fa
:107fb400fa55e3003e013a008236ef008436ef00c2
:107fc400b15f21009140780004cdb30004c04000ab
:107fd400e94f500007003e000180fb000003b100a0
:107fe400027122000280b900cf80de0010b4880044
:107ff40021b48800c15f21009140780004c0400092
:10800400e94f50000b003e000180fb000003b1006b
:10801400823e20000280b900cf80de0012b48000ce
:1080240023b48000000141008181490012b488001a
:1080340023b48800d15f21009140780004c040003f
:10804400e94f50000c003e000181fb004006200077
:108054000091b90000d42e0002004000cf80de0061
:1080640012b4800023b480000001410081814900e2
:1080740012b4880023b48800e15f210091407800a5
:1080840004c04000e94f50000c003e00014078005d
:10809400a2c0b3000440bc0000e22f000000410075
:1080a4006101b90010b4800021b4800002004000d6
:1080b4008380480010b4880021b48800f15f210057
:1080c4009140780004c04000e94f500009003e0090
:1080d4000180fb000003b100cf80de0012b48000f9
:1080e40023b48000000141008181490012b488005a
:1080f40023b488005671ef0010b4800021b48000ce
:10810400c08a8800d18a8800461c070061152100b6
:10811400914078008180fb00c208dd00c28a8000a3
:10812400d38a8000107d2000a0310700d7003700db
:1081340050c5b30080cf5000dd003a00a15f21009c
:10814400914078006540500080cf50008f003a0085
:108154008236ef008436ef007e36ef008036ef0083
:10816400b15f21009140780004cdb30004c0400009
:10817400e94f500008003e0001407800a2c0b3005f
:108184000440bc0000e22f0000004100cf80de006c
:1081940010b4880021b48800c15f210091407800a8
:1081a40004c04000e94f500009003e000180fb007c
:1081b4000003b100cf80de0012b4800023b480003d
:1081c400000141008181490012b4880023b4880071
:1081d400d15f21009140780004c04000e94f500075
:1081e40007003e000180fb000003b1000271220081
:1081f4000280b900cf80de00f0b3880001b48800ab
:10820400e15f21009140780004c04000e94f500034
:108214000b003e000180fb000003b100823e200001
:108224000280b900cf80de00f2b3800003b4800086
:108234000001410081814900f2b3880003b4880041
:10824400f15f21009140780004c04000e94f5000e4
:108254000c003e000181fb00400620000091b900a3
:1082640000d42e0002004000cf80de00f2b3800074
:1082740003b480000001410081814900f2b3880009
:1082840003b48800016021009140780004c04000dc
:10829400e94f50000c003e0001407800a2c0b3003a
:1082a4000440bc0000e22f00000041006101b9005d
:1082b400f0b3800001b480000200400083804800d5
:1082c400f0b3880001b48800116021009140780067
:1082d40004c04000e94f500009003e000180fb004b
:1082e4000003b100cf80de00f2b3800003b480004d
:1082f4000001410081814900f2b3880003b4880081
:1083040010b480008040780056f1b700f2b38000ca
:1083140003b48000c28a8800d38a88000082fb00ec
:1083240010c3b30080cf500003003e00c220dd0024
:10833400107d200003003700c220dd008143b0001f
:10834400207d2000193107006215210012417800b8
:108354000281fb000300200081ccb3000000eb008d
:108364001231070056d1bf003b1c0700c08a8000b1
:10837400d18a8000ab1b07008236ef008436ef0001
:108384007e36ef008036ef0049003700c0c4b300ea
:1083940080cf500046003a008236ef008436ef006a
:1083a400b15f21009140780003cdb30003c04000c9
:1083b400e94f500008003e0001407800a2c0b3001d
:1083c4000440bc0000e22f0000004100cf80de002a
:1083d40010b4880021b48800c15f21009140780066
:1083e40003c04000e94f500009003e000180fb003b
:1083f4000003b100cf80de0012b4800023b48000fb
:10840400000141008181490012b4880023b488002e
:1084140010b4800056f1b7000f1c0700611521004d
:10842400914078000181fb0010c3b30080cf50005d
:1084340003003e00c210dd00107d20000300370061
:10844400c210dd008143b000207d2000f53007001c
:10845400e08a8800f18a88000001be00f0692800e3
:1084640011002000800f5100818f59000200360056
:108474005c31ef005e31ef00e08a8000f18a800019
:10848400c08a8800d18a8800661b07006215210013
:10849400124178000281fb000300200081ccb3006c
:1084a4000000eb00c13007008236ef008436ef0095
:1084b400805f2100716021000058eb00810f5000a3
:1084c400fdff3a00f675ef00a00d210031c0b300a6
:1084d40090cf100011003a0073f207000f0037002c
:1084e400e14f500008003a00b851e20003003a009e
:1084f400b09e8000c19e800007003700408d800040
:10850400518d800004003700e24f500003003a0010
:10851400404080005140800075f107004f06be00c6
:108524004f05be004f04780000000600881f780045
:1085340028042000184478000884fb004544de0029
:1085440091028000ff3ffc0000ceb3004260b70000
:10855400910288006f34070091028000ff3ffc0005
:108564004544dd0042c0bf007f4060000840700009
:1085740042e0b700910288004f0478000000060032
:10858400889fbe008a9fbe0002447800a902800032
:108594000a8020000b1020000083fb008180fb0078
:1085a40002c0200002b1b90002024500e0824d0081
:1085b4004a09dd0002014200e0814a00a30288006a
:1085c4006331b90082804000ca08dd000a8040009f
:1085d4004c340700f34f540008003200f44f5400a9
:1085e400090032008040eb00f24f540008003a00ca
:1085f40064006000c200de0005003700680060000f
:10860400c300de000200370070006000c400de001a
:10861400a90288000180fb004f05be004f04be0084
:1086240000000600889fbe00a8028000068020008b
:10863400071020008084fb008180fb0002c0200022
:1086440002c9b90002024300e0824b004a09dd007e
:1086540002014200e0814a00a302880020042400b1
:10866400003b88006349b90082804000ca08dd00ed
:10867400868040000100780037340700abff070014
:10868400a80288004f04be0000000600889fbe00b8
:108694008a1f780080447800aa0280000004eb005e
:1086a400030037000804e800e30f5400060032001a
:1086b40032c1b3008840780009407800b0ff070059
:1086c400e10f5000f7ff3200068020000710200061
:1086d4000981fb0000c020000090b90000024300a3
:1086e400e0824b004a40dd0000004200e0804a0086
:1086f400a10288006311b900020144004a11dd009f
:10870400060441008004eb008984e8000884e80042
:1087140008007800fb330700804078000040200008
:10872400808f540002003a008004eb0002003700fe
:10873400e1cf4000f4ff3a00aa0288000900780063
:108744004f0578004f04be0000000600889fbe005d
:108754008a9fbe0000047800d01f2000800f5400c0
:108764000200360090b6a80014003700f20f200073
:10877400110009000284d800000178000245780045
:10878400ab0280008004eb00030037008904e8009a
:10879400e38f54000700320032c1b30089407800ef
:1087a4000a40780076ff0700e10f5000f7ff32001f
:1087b40004003700ab02880090d6a8000080eb00cc
:1087c4002400370004802000051020000a81fb00eb
:1087d40000c020000091b9004a4bdd0002004200b5
:1087e400e0804a0006004000e0804800a1028800c2
:1087f4000401410006014100e13f20008280400065
:10880400f20f200001057800110009000284d8004d
:108814000105fd0009202000010478000100780012
:10882400b83307008880e9008904e90003003200b6
:108834008a0f500004003200f7ff37009016a8009a
:10884400ab028800ddff370008007800af33070073
:10885400ab0288004f05be004f04be0000000600b6
:10886400889fbe00a0002000b8ff07000100200080
:10887400c000dd0000002000e00f5000e08f580031
:108884000200350032e00700050037008100d10006
:108894000080d3002ee007000001be003edf070089
:1088a400d09f8800e19f8800b0002000a7ff070048
:1088b4006104b800d09f8000e19f800009e00700b8
:1088c4000001740081817400e00f5100e08f5900b1
:1088d400030035000200be001de007000900370058
:1088e40061006100010020008301d1000281d300f6
:1088f400020070008380700015e007000001be00d4
:1089040025df07000268290083b124007fdf070008
:10891400d09f8800e19f8800e00020008bff0700c3
:1089240001002000c000dd0000002000e00f500026
:10893400e08f58000200350005e00700050037000d
:108944008100d1000080d30001e007000001be00d7
:1089540011df0700b09f8800c19f8800f00020004d
:108964007aff07006104b800b09f8000c19f8000b7
:10897400dcdf07000001740081817400e00f510006
:10898400e08f5900030035000200be00f0df07004d
:108994000900370061006100010020008301d1005b
:1089a4000281d3000200700083807000e8df0700ba
:1089b4000001be00f8de07000268290083b124002c
:1089c40052df0700b09f8800c19f8800200020006c
:1089d4005eff070001002000c000dd000000200051
:1089e400109f8800219f88003000200057ff070057
:1089f40001002000223e21001209700052897000fb
:108a04004000200051ff070001002000c000dd00ed
:108a140000002000309f8800419f88005000200003
:108a24004aff070001002000623e21001209700085
:108a3400528970006000200044ff070001002000fc
:108a4400c000dd0000002000709f8800819f880026
:108a5400700020003dff070001002000e23e2100dd
:108a640012097000528970000001200037ff0700ce
:108a740001002000c000dd0000002000509f88009d
:108a8400619f88001001200030ff070001002000d2
:108a9400a23e21001209700052897000800020005b
:108aa4002aff070001002000c000dd0000002000b4
:108ab400909f8800a19f88009000200023ff07005a
:108ac40001002000223f2100120970005289700029
:108ad400400120001dff070001002000c000dd0050
:108ae40000002000f09e8800019f880050012000b3
:108af40016ff070001002000e23d2100120970006a
:108b040052897000e001200010ff0700e09d8800fa
:108b1400f00120000dff0700d09d88000002200016
:108b24000aff0700b9f3b7002001200007ff070080
:108b3400b8f3b7001002200004ff0700b7f3b70032
:108b44002002200001ff0700ecf0b70030022000f3
:108b5400fefe07000100200040878800518788003e
:108b640040022000f9fe0700e7f0b70050022000a1
:108b7400f6fe0700e6f0b70060022000f3fe0700ef
:108b8400e5f0b70070022000f0fe0700e4f0b70043
:108b940080022000edfe0700e3f0b7009002200001
:108ba400eafe0700e2f0b700a0022000e7fe07009b
:108bb400e1f0b700b0022000e4fe0700e0f0b700e7
:108bc400c0022000e1fe0700dff0b700d002200061
:108bd400defe0700def0b700e0022000dbfe070047
:108be400e0868800f0022000d8fe0700daf0b70023
:108bf40000032000d5fe0700d9f0b70010032000c1
:108c0400d2fe0700d8f0b70020032000cffe0700f3
:108c1400b6f3b70030032000ccfe0700d7f0b7004e
:108c240040032000c9fe0700d6f0b700500320001f
:108c3400c6fe0700d5f0b70060032000c3fe07009e
:108c4400d4f0b70090032000c0fe0700d3f0b700b3
:108c5400a0032000bdfe070010e8b700b003200009
:108c6400bafe07000fe8b700d0032000b7fe0700e4
:108c74000ee8b700e0032000b4fe0700d2f0b7000e
:108c8400f0032000b1fe0700d1f0b700000420007b
:108c9400aefe07000de8b70010042000abfe07008d
:108ca4000ce8b70020042000a8fe0700d0f0b700ad
:108cb4004001200001002000151d07009d1e070033
:108cc4004001200001002000111d07004f04be00d8
:108cd40000000600f4874700889fbe008a9fbe00fc
:108ce4008c9fbe008e1f780080f79f00a00280003a
:108cf400f0b79f000007eb00030037000e07e80001
:108d0400e30f57000700320032c1b3008e407800f1
:108d14000ff097001afe0700e10f5000f7ff320032
:108d240005003700ffb09700a10288009076a800e4
:108d34000e007800d50037008e06e800e38f560059
:108d440008003a008006eb00060037008d06e800b4
:108d5400e38f560001003a00800678008e8f56009b
:108d6400b900320042c1b3008d4078000ff0970083
:108d740003fe07000000e000f4ff32000280200040
:108d8400031020000ff297008484fb0000c0200031
:108d940000c8b9006102b800d4b79f00e5b79f00ce
:108da4004a68dd006102b800b4b79f00c5b79f00f0
:108db4005fb29700efb297000200420083804a003e
:108dc4003fb29700cfb297000000420081804a0072
:108dd400a10288006348b900a0b79f000d004000bd
:108de4004a06dd00020446000ff0970027fe070044
:108df4000000e000010032009056a80090d6bf00a9
:108e040080e79f009016a90010002400003b880012
:108e1400880078000080eb004f320700880078005b
:108e2400f00f2000483207000884e800f00f20000b
:108e340000c8b90090b79f00190020008045eb00de
:108e44000b85fb009fb097000a8040003ffe07009f
:108e54009016ab00020032009016a90007003700fc
:108e6400880078003c320700880078000a00780007
:108e7400353207000884e8008904e8008b45e800df
:108e8400e1cf45000e003a00080037008800780062
:108e94000080eb003032070088007800f00f2000db
:108ea400293207000884e8008904e800f003200060
:108eb400808f5400f5ff340080c5eb0003003700b9
:108ec400f0032000808f5400ddff340097fd07007d
:108ed4008004eb00e1cf4500d9ff3a000fe0970092
:108ee40090f6b70002802000031020005fb29700c4
:108ef400efb297000200420083804a003fb297001d
:108f0400cfb297000000420081804a00a10288008d
:108f1400020546000a84e80008007800f9310700d9
:108f2400804478008885e800630045000c00370021
:108f34000980fb009fb297000080420003fe0700f7
:108f4400880f500045003a000b04e8000b0078003d
:108f5400ec310700804478008b85e8000800780035
:108f6400ea31070000047800e1cf4400f0ff3a0042
:108f74000080200001102000afb197000e81410055
:108f84004a11dd0000044100000646005fb297006c
:108f9400efb297000005420081854a004a70dd0067
:108fa40000004500e0804d00a10288000800780020
:108fb400d63107008004780008007800d13107001a
:108fc400004178000d00e00001003a008904e80047
:108fd400e38f5400020036009036a8000244a1003a
:108fe4003fb29700cfb297000a0042008b804a003c
:108ff400a10288000284fb008c007800080078003d
:10900400d13107008c00780009007800d2310700c4
:1090140030002400003b880044fd07000c00780069
:10902400b8310700800f540004003a000c007800a7
:10903400b6310700808f54000d003200ffb2970054
:10904400a5028800070037007fb09700a0028800bf
